{
  "contractName": "RES",
  "abi": [
    {
      "constant": true,
      "inputs": [
        {
          "name": "interfaceId",
          "type": "bytes4"
        }
      ],
      "name": "supportsInterface",
      "outputs": [
        {
          "name": "",
          "type": "bool"
        }
      ],
      "payable": false,
      "stateMutability": "view",
      "type": "function"
    },
    {
      "constant": true,
      "inputs": [
        {
          "name": "",
          "type": "uint256"
        }
      ],
      "name": "assetApprovals",
      "outputs": [
        {
          "name": "",
          "type": "address"
        }
      ],
      "payable": false,
      "stateMutability": "view",
      "type": "function"
    },
    {
      "constant": true,
      "inputs": [
        {
          "name": "",
          "type": "uint256"
        }
      ],
      "name": "assetMap",
      "outputs": [
        {
          "name": "assetId",
          "type": "uint256"
        },
        {
          "name": "price",
          "type": "uint256"
        }
      ],
      "payable": false,
      "stateMutability": "view",
      "type": "function"
    },
    {
      "constant": true,
      "inputs": [
        {
          "name": "",
          "type": "address"
        }
      ],
      "name": "ownedAssetCount",
      "outputs": [
        {
          "name": "",
          "type": "uint256"
        }
      ],
      "payable": false,
      "stateMutability": "view",
      "type": "function"
    },
    {
      "constant": true,
      "inputs": [
        {
          "name": "",
          "type": "uint256"
        }
      ],
      "name": "assetOwner",
      "outputs": [
        {
          "name": "",
          "type": "address"
        }
      ],
      "payable": false,
      "stateMutability": "view",
      "type": "function"
    },
    {
      "constant": true,
      "inputs": [],
      "name": "supervisor",
      "outputs": [
        {
          "name": "",
          "type": "address"
        }
      ],
      "payable": false,
      "stateMutability": "view",
      "type": "function"
    },
    {
      "constant": true,
      "inputs": [],
      "name": "assetCount",
      "outputs": [
        {
          "name": "",
          "type": "uint256"
        }
      ],
      "payable": false,
      "stateMutability": "view",
      "type": "function"
    },
    {
      "inputs": [],
      "payable": false,
      "stateMutability": "nonpayable",
      "type": "constructor"
    },
    {
      "anonymous": false,
      "inputs": [
        {
          "indexed": true,
          "name": "from",
          "type": "address"
        },
        {
          "indexed": true,
          "name": "to",
          "type": "address"
        },
        {
          "indexed": true,
          "name": "tokenId",
          "type": "uint256"
        }
      ],
      "name": "Transfer",
      "type": "event"
    },
    {
      "anonymous": false,
      "inputs": [
        {
          "indexed": true,
          "name": "owner",
          "type": "address"
        },
        {
          "indexed": true,
          "name": "approved",
          "type": "address"
        },
        {
          "indexed": true,
          "name": "tokenId",
          "type": "uint256"
        }
      ],
      "name": "Approval",
      "type": "event"
    },
    {
      "anonymous": false,
      "inputs": [
        {
          "indexed": true,
          "name": "owner",
          "type": "address"
        },
        {
          "indexed": true,
          "name": "operator",
          "type": "address"
        },
        {
          "indexed": false,
          "name": "approved",
          "type": "bool"
        }
      ],
      "name": "ApprovalForAll",
      "type": "event"
    },
    {
      "constant": true,
      "inputs": [
        {
          "name": "owner",
          "type": "address"
        }
      ],
      "name": "balanceOf",
      "outputs": [
        {
          "name": "",
          "type": "uint256"
        }
      ],
      "payable": false,
      "stateMutability": "view",
      "type": "function"
    },
    {
      "constant": true,
      "inputs": [
        {
          "name": "tokenId",
          "type": "uint256"
        }
      ],
      "name": "ownerOf",
      "outputs": [
        {
          "name": "",
          "type": "address"
        }
      ],
      "payable": false,
      "stateMutability": "view",
      "type": "function"
    },
    {
      "constant": false,
      "inputs": [
        {
          "name": "from",
          "type": "address"
        },
        {
          "name": "assetId",
          "type": "uint256"
        }
      ],
      "name": "transferFrom",
      "outputs": [],
      "payable": true,
      "stateMutability": "payable",
      "type": "function"
    },
    {
      "constant": false,
      "inputs": [
        {
          "name": "from",
          "type": "address"
        },
        {
          "name": "to",
          "type": "address"
        },
        {
          "name": "tokenId",
          "type": "uint256"
        }
      ],
      "name": "transferFrom",
      "outputs": [],
      "payable": false,
      "stateMutability": "nonpayable",
      "type": "function"
    },
    {
      "constant": false,
      "inputs": [
        {
          "name": "to",
          "type": "address"
        },
        {
          "name": "assetId",
          "type": "uint256"
        }
      ],
      "name": "approve",
      "outputs": [],
      "payable": false,
      "stateMutability": "nonpayable",
      "type": "function"
    },
    {
      "constant": true,
      "inputs": [
        {
          "name": "assetId",
          "type": "uint256"
        }
      ],
      "name": "getApproved",
      "outputs": [
        {
          "name": "",
          "type": "address"
        }
      ],
      "payable": false,
      "stateMutability": "view",
      "type": "function"
    },
    {
      "constant": false,
      "inputs": [
        {
          "name": "to",
          "type": "address"
        },
        {
          "name": "approved",
          "type": "bool"
        }
      ],
      "name": "setApprovalForAll",
      "outputs": [],
      "payable": false,
      "stateMutability": "nonpayable",
      "type": "function"
    },
    {
      "constant": true,
      "inputs": [
        {
          "name": "owner",
          "type": "address"
        },
        {
          "name": "operator",
          "type": "address"
        }
      ],
      "name": "isApprovedForAll",
      "outputs": [
        {
          "name": "",
          "type": "bool"
        }
      ],
      "payable": false,
      "stateMutability": "view",
      "type": "function"
    },
    {
      "constant": false,
      "inputs": [
        {
          "name": "from",
          "type": "address"
        },
        {
          "name": "to",
          "type": "address"
        },
        {
          "name": "tokenId",
          "type": "uint256"
        }
      ],
      "name": "safeTransferFrom",
      "outputs": [],
      "payable": false,
      "stateMutability": "nonpayable",
      "type": "function"
    },
    {
      "constant": false,
      "inputs": [
        {
          "name": "from",
          "type": "address"
        },
        {
          "name": "to",
          "type": "address"
        },
        {
          "name": "tokenId",
          "type": "uint256"
        },
        {
          "name": "_data",
          "type": "bytes"
        }
      ],
      "name": "safeTransferFrom",
      "outputs": [],
      "payable": false,
      "stateMutability": "nonpayable",
      "type": "function"
    },
    {
      "constant": false,
      "inputs": [
        {
          "name": "price",
          "type": "uint256"
        },
        {
          "name": "to",
          "type": "address"
        }
      ],
      "name": "addAsset",
      "outputs": [],
      "payable": false,
      "stateMutability": "nonpayable",
      "type": "function"
    },
    {
      "constant": false,
      "inputs": [
        {
          "name": "assetId",
          "type": "uint256"
        },
        {
          "name": "value",
          "type": "uint256"
        }
      ],
      "name": "appreciate",
      "outputs": [],
      "payable": false,
      "stateMutability": "nonpayable",
      "type": "function"
    },
    {
      "constant": false,
      "inputs": [
        {
          "name": "assetId",
          "type": "uint256"
        },
        {
          "name": "value",
          "type": "uint256"
        }
      ],
      "name": "depreciate",
      "outputs": [],
      "payable": false,
      "stateMutability": "nonpayable",
      "type": "function"
    },
    {
      "constant": true,
      "inputs": [],
      "name": "getAssetsSize",
      "outputs": [
        {
          "name": "",
          "type": "uint256"
        }
      ],
      "payable": false,
      "stateMutability": "view",
      "type": "function"
    }
  ],
  "bytecode": "0x60806040523480156200001157600080fd5b506200002a6301ffc9a760e01b6200008960201b60201c565b620000426380ac58cd60e01b6200008960201b60201c565b33600660006101000a81548173ffffffffffffffffffffffffffffffffffffffff021916908373ffffffffffffffffffffffffffffffffffffffff16021790555062000192565b63ffffffff60e01b817bffffffffffffffffffffffffffffffffffffffffffffffffffffffff1916141562000126576040517f08c379a000000000000000000000000000000000000000000000000000000000815260040180806020018281038252601c8152602001807f4552433136353a20696e76616c696420696e746572666163652069640000000081525060200191505060405180910390fd5b6001600080837bffffffffffffffffffffffffffffffffffffffffffffffffffffffff19167bffffffffffffffffffffffffffffffffffffffffffffffffffffffff1916815260200190815260200160002060006101000a81548160ff02191690831515021790555050565b6126bc80620001a26000396000f3fe60806040526004361061012a5760003560e01c806336448b04116100ab57806370a082311161006f57806370a08231146107095780639f980f911461076e578063a22cb465146107b3578063b88d4fde14610810578063e985e9c514610922578063eafe7a74146109ab5761012a565b806336448b041461053657806342842e0e1461056157806351c8c3f1146105dc57806356e4b68b146106375780636352211e1461068e5761012a565b8063129f9008116100f2578063129f90081461034057806315f46a221461039657806323b872dd146103fb5780632a0ee644146104765780632b34af51146104f15761012a565b806301c6adc31461012f57806301ffc9a71461017d57806303385770146101ef578063081812fc1461026a578063095ea7b3146102e5575b600080fd5b61017b6004803603604081101561014557600080fd5b81019080803573ffffffffffffffffffffffffffffffffffffffff169060200190929190803590602001909291905050506109d6565b005b34801561018957600080fd5b506101d5600480360360208110156101a057600080fd5b8101908080357bffffffffffffffffffffffffffffffffffffffffffffffffffffffff19169060200190929190505050610d59565b604051808215151515815260200191505060405180910390f35b3480156101fb57600080fd5b506102286004803603602081101561021257600080fd5b8101908080359060200190929190505050610dc0565b604051808273ffffffffffffffffffffffffffffffffffffffff1673ffffffffffffffffffffffffffffffffffffffff16815260200191505060405180910390f35b34801561027657600080fd5b506102a36004803603602081101561028d57600080fd5b8101908080359060200190929190505050610df3565b604051808273ffffffffffffffffffffffffffffffffffffffff1673ffffffffffffffffffffffffffffffffffffffff16815260200191505060405180910390f35b3480156102f157600080fd5b5061033e6004803603604081101561030857600080fd5b81019080803573ffffffffffffffffffffffffffffffffffffffff16906020019092919080359060200190929190505050610e8e565b005b34801561034c57600080fd5b506103796004803603602081101561036357600080fd5b8101908080359060200190929190505050611090565b604051808381526020018281526020019250505060405180910390f35b3480156103a257600080fd5b506103e5600480360360208110156103b957600080fd5b81019080803573ffffffffffffffffffffffffffffffffffffffff1690602001909291905050506110b4565b6040518082815260200191505060405180910390f35b34801561040757600080fd5b506104746004803603606081101561041e57600080fd5b81019080803573ffffffffffffffffffffffffffffffffffffffff169060200190929190803573ffffffffffffffffffffffffffffffffffffffff169060200190929190803590602001909291905050506110cc565b005b34801561048257600080fd5b506104af6004803603602081101561049957600080fd5b810190808035906020019092919050505061113b565b604051808273ffffffffffffffffffffffffffffffffffffffff1673ffffffffffffffffffffffffffffffffffffffff16815260200191505060405180910390f35b3480156104fd57600080fd5b506105346004803603604081101561051457600080fd5b81019080803590602001909291908035906020019092919050505061116e565b005b34801561054257600080fd5b5061054b61129e565b6040518082815260200191505060405180910390f35b34801561056d57600080fd5b506105da6004803603606081101561058457600080fd5b81019080803573ffffffffffffffffffffffffffffffffffffffff169060200190929190803573ffffffffffffffffffffffffffffffffffffffff169060200190929190803590602001909291905050506112a8565b005b3480156105e857600080fd5b50610635600480360360408110156105ff57600080fd5b8101908080359060200190929190803573ffffffffffffffffffffffffffffffffffffffff1690602001909291905050506112c8565b005b34801561064357600080fd5b5061064c6113d3565b604051808273ffffffffffffffffffffffffffffffffffffffff1673ffffffffffffffffffffffffffffffffffffffff16815260200191505060405180910390f35b34801561069a57600080fd5b506106c7600480360360208110156106b157600080fd5b81019080803590602001909291905050506113f9565b604051808273ffffffffffffffffffffffffffffffffffffffff1673ffffffffffffffffffffffffffffffffffffffff16815260200191505060405180910390f35b34801561071557600080fd5b506107586004803603602081101561072c57600080fd5b81019080803573ffffffffffffffffffffffffffffffffffffffff1690602001909291905050506114de565b6040518082815260200191505060405180910390f35b34801561077a57600080fd5b506107b16004803603604081101561079157600080fd5b8101908080359060200190929190803590602001909291905050506115ac565b005b3480156107bf57600080fd5b5061080e600480360360408110156107d657600080fd5b81019080803573ffffffffffffffffffffffffffffffffffffffff1690602001909291908035151590602001909291905050506116dc565b005b34801561081c57600080fd5b506109206004803603608081101561083357600080fd5b81019080803573ffffffffffffffffffffffffffffffffffffffff169060200190929190803573ffffffffffffffffffffffffffffffffffffffff169060200190929190803590602001909291908035906020019064010000000081111561089a57600080fd5b8201836020820111156108ac57600080fd5b803590602001918460018302840111640100000000831117156108ce57600080fd5b91908080601f016020809104026020016040519081016040528093929190818152602001838380828437600081840152601f19601f82011690508083019250505050505050919291929050505061187f565b005b34801561092e57600080fd5b506109916004803603604081101561094557600080fd5b81019080803573ffffffffffffffffffffffffffffffffffffffff169060200190929190803573ffffffffffffffffffffffffffffffffffffffff1690602001909291905050506118f1565b604051808215151515815260200191505060405180910390f35b3480156109b757600080fd5b506109c0611985565b6040518082815260200191505060405180910390f35b6109e0338261198b565b610a52576040517f08c379a00000000000000000000000000000000000000000000000000000000081526004018080602001828103825260158152602001807f4e6f7420416e20417070726f766564204f776e6572000000000000000000000081525060200191505060405180910390fd5b8173ffffffffffffffffffffffffffffffffffffffff16610a72826113f9565b73ffffffffffffffffffffffffffffffffffffffff1614610afb576040517f08c379a00000000000000000000000000000000000000000000000000000000081526004018080602001828103825260138152602001807f4e6f7420546865204173736574204f776e65720000000000000000000000000081525060200191505060405180910390fd5b670de0b6b3a76400006007600083815260200190815260200160002060010154023414610b90576040517f08c379a00000000000000000000000000000000000000000000000000000000081526004018080602001828103825260108152602001807f4e6f7420656e6f7567682056616c75650000000000000000000000000000000081525060200191505060405180910390fd5b610ba281610b9d83610df3565b611a6e565b600a60008373ffffffffffffffffffffffffffffffffffffffff1673ffffffffffffffffffffffffffffffffffffffff1681526020019081526020016000206000815480929190600190039190505550600a60003373ffffffffffffffffffffffffffffffffffffffff1673ffffffffffffffffffffffffffffffffffffffff16815260200190815260200160002060008154809291906001019190505550336009600083815260200190815260200160002060006101000a81548173ffffffffffffffffffffffffffffffffffffffff021916908373ffffffffffffffffffffffffffffffffffffffff1602179055508173ffffffffffffffffffffffffffffffffffffffff166108fc670de0b6b3a76400006007600085815260200190815260200160002060010154029081150290604051600060405180830381858888f19350505050158015610cf9573d6000803e3d6000fd5b50803373ffffffffffffffffffffffffffffffffffffffff168373ffffffffffffffffffffffffffffffffffffffff167fddf252ad1be2c89b69c2b068fc378daa952ba7f163c4a11628f55a4df523b3ef60405160405180910390a45050565b6000806000837bffffffffffffffffffffffffffffffffffffffffffffffffffffffff19167bffffffffffffffffffffffffffffffffffffffffffffffffffffffff1916815260200190815260200160002060009054906101000a900460ff169050919050565b60086020528060005260406000206000915054906101000a900473ffffffffffffffffffffffffffffffffffffffff1681565b6000610dfe82611b2d565b610e53576040517f08c379a000000000000000000000000000000000000000000000000000000000815260040180806020018281038252602c81526020018061260b602c913960400191505060405180910390fd5b6008600083815260200190815260200160002060009054906101000a900473ffffffffffffffffffffffffffffffffffffffff169050919050565b6000610e99826113f9565b90508073ffffffffffffffffffffffffffffffffffffffff168373ffffffffffffffffffffffffffffffffffffffff161415610f3d576040517f08c379a00000000000000000000000000000000000000000000000000000000081526004018080602001828103825260168152602001807f43757272656e74204f776e657220417070726f76616c0000000000000000000081525060200191505060405180910390fd5b8073ffffffffffffffffffffffffffffffffffffffff163373ffffffffffffffffffffffffffffffffffffffff1614610fde576040517f08c379a00000000000000000000000000000000000000000000000000000000081526004018080602001828103825260138152602001807f4e6f7420546865204173736574204f776e65720000000000000000000000000081525060200191505060405180910390fd5b826008600084815260200190815260200160002060006101000a81548173ffffffffffffffffffffffffffffffffffffffff021916908373ffffffffffffffffffffffffffffffffffffffff160217905550818373ffffffffffffffffffffffffffffffffffffffff168273ffffffffffffffffffffffffffffffffffffffff167f8c5be1e5ebec7d5bd14f71427d1e84f3dd0314c0f7b2291e5b200ac8c7c3b92560405160405180910390a4505050565b60076020528060005260406000206000915090508060000154908060010154905082565b600a6020528060005260406000206000915090505481565b6110d63382611b99565b61112b576040517f08c379a00000000000000000000000000000000000000000000000000000000081526004018080602001828103825260318152602001806126606031913960400191505060405180910390fd5b611136838383611c8d565b505050565b60096020528060005260406000206000915054906101000a900473ffffffffffffffffffffffffffffffffffffffff1681565b600660009054906101000a900473ffffffffffffffffffffffffffffffffffffffff1673ffffffffffffffffffffffffffffffffffffffff163373ffffffffffffffffffffffffffffffffffffffff1614611214576040517f08c379a00000000000000000000000000000000000000000000000000000000081526004018080602001828103825260278152602001806125436027913960400191505060405180910390fd5b61121c6124f6565b6007600084815260200190815260200160002060405180604001604052908160008201548152602001600182015481525050905060405180604001604052808260000151815260200183836020015101815250600760008581526020019081526020016000206000820151816000015560208201518160010155905050505050565b6000600554905090565b6112c38383836040518060200160405280600081525061187f565b505050565b600660009054906101000a900473ffffffffffffffffffffffffffffffffffffffff1673ffffffffffffffffffffffffffffffffffffffff163373ffffffffffffffffffffffffffffffffffffffff161461136e576040517f08c379a00000000000000000000000000000000000000000000000000000000081526004018080602001828103825260278152602001806125ba6027913960400191505060405180910390fd5b604051806040016040528060055481526020018381525060076000600554815260200190815260200160002060008201518160000155602082015181600101559050506113bd81600554611ee8565b6005600081548092919060010191905055505050565b600660009054906101000a900473ffffffffffffffffffffffffffffffffffffffff1681565b6000806009600084815260200190815260200160002060009054906101000a900473ffffffffffffffffffffffffffffffffffffffff169050600073ffffffffffffffffffffffffffffffffffffffff168173ffffffffffffffffffffffffffffffffffffffff1614156114d5576040517f08c379a000000000000000000000000000000000000000000000000000000000815260040180806020018281038252600f8152602001807f4e6f20417373657420457869737473000000000000000000000000000000000081525060200191505060405180910390fd5b80915050919050565b60008073ffffffffffffffffffffffffffffffffffffffff163373ffffffffffffffffffffffffffffffffffffffff161415611565576040517f08c379a000000000000000000000000000000000000000000000000000000000815260040180806020018281038252602a8152602001806125e1602a913960400191505060405180910390fd5b600a60008373ffffffffffffffffffffffffffffffffffffffff1673ffffffffffffffffffffffffffffffffffffffff168152602001908152602001600020549050919050565b600660009054906101000a900473ffffffffffffffffffffffffffffffffffffffff1673ffffffffffffffffffffffffffffffffffffffff163373ffffffffffffffffffffffffffffffffffffffff1614611652576040517f08c379a00000000000000000000000000000000000000000000000000000000081526004018080602001828103825260278152602001806125436027913960400191505060405180910390fd5b61165a6124f6565b6007600084815260200190815260200160002060405180604001604052908160008201548152602001600182015481525050905060405180604001604052808260000151815260200183836020015103815250600760008581526020019081526020016000206000820151816000015560208201518160010155905050505050565b3373ffffffffffffffffffffffffffffffffffffffff168273ffffffffffffffffffffffffffffffffffffffff16141561177e576040517f08c379a00000000000000000000000000000000000000000000000000000000081526004018080602001828103825260198152602001807f4552433732313a20617070726f766520746f2063616c6c65720000000000000081525060200191505060405180910390fd5b80600b60003373ffffffffffffffffffffffffffffffffffffffff1673ffffffffffffffffffffffffffffffffffffffff16815260200190815260200160002060008473ffffffffffffffffffffffffffffffffffffffff1673ffffffffffffffffffffffffffffffffffffffff16815260200190815260200160002060006101000a81548160ff0219169083151502179055508173ffffffffffffffffffffffffffffffffffffffff163373ffffffffffffffffffffffffffffffffffffffff167f17307eab39ab6107e8899845ad3d59bd9653f200f220920489ca2b5937696c3183604051808215151515815260200191505060405180910390a35050565b61188a8484846110cc565b61189684848484612108565b6118eb576040517f08c379a00000000000000000000000000000000000000000000000000000000081526004018080602001828103825260328152602001806125116032913960400191505060405180910390fd5b50505050565b6000600b60008473ffffffffffffffffffffffffffffffffffffffff1673ffffffffffffffffffffffffffffffffffffffff16815260200190815260200160002060008373ffffffffffffffffffffffffffffffffffffffff1673ffffffffffffffffffffffffffffffffffffffff16815260200190815260200160002060009054906101000a900460ff16905092915050565b60055481565b600061199682611b2d565b6119eb576040517f08c379a000000000000000000000000000000000000000000000000000000000815260040180806020018281038252602c81526020018061258e602c913960400191505060405180910390fd5b60006119f6836113f9565b90508073ffffffffffffffffffffffffffffffffffffffff168473ffffffffffffffffffffffffffffffffffffffff161480611a655750611a3683610df3565b73ffffffffffffffffffffffffffffffffffffffff168473ffffffffffffffffffffffffffffffffffffffff16145b91505092915050565b6008600083815260200190815260200160002060009054906101000a900473ffffffffffffffffffffffffffffffffffffffff1673ffffffffffffffffffffffffffffffffffffffff168173ffffffffffffffffffffffffffffffffffffffff161415611b295760006008600084815260200190815260200160002060006101000a81548173ffffffffffffffffffffffffffffffffffffffff021916908373ffffffffffffffffffffffffffffffffffffffff1602179055505b5050565b60008073ffffffffffffffffffffffffffffffffffffffff166009600084815260200190815260200160002060009054906101000a900473ffffffffffffffffffffffffffffffffffffffff1673ffffffffffffffffffffffffffffffffffffffff1614159050919050565b6000611ba4826122f1565b611bf9576040517f08c379a000000000000000000000000000000000000000000000000000000000815260040180806020018281038252602c81526020018061258e602c913960400191505060405180910390fd5b6000611c04836113f9565b90508073ffffffffffffffffffffffffffffffffffffffff168473ffffffffffffffffffffffffffffffffffffffff161480611c7357508373ffffffffffffffffffffffffffffffffffffffff16611c5b84610df3565b73ffffffffffffffffffffffffffffffffffffffff16145b80611c845750611c8381856118f1565b5b91505092915050565b8273ffffffffffffffffffffffffffffffffffffffff16611cad826113f9565b73ffffffffffffffffffffffffffffffffffffffff1614611d19576040517f08c379a00000000000000000000000000000000000000000000000000000000081526004018080602001828103825260298152602001806126376029913960400191505060405180910390fd5b600073ffffffffffffffffffffffffffffffffffffffff168273ffffffffffffffffffffffffffffffffffffffff161415611d9f576040517f08c379a000000000000000000000000000000000000000000000000000000000815260040180806020018281038252602481526020018061256a6024913960400191505060405180910390fd5b611da881612363565b611def600360008573ffffffffffffffffffffffffffffffffffffffff1673ffffffffffffffffffffffffffffffffffffffff168152602001908152602001600020612421565b611e36600360008473ffffffffffffffffffffffffffffffffffffffff1673ffffffffffffffffffffffffffffffffffffffff168152602001908152602001600020612444565b816001600083815260200190815260200160002060006101000a81548173ffffffffffffffffffffffffffffffffffffffff021916908373ffffffffffffffffffffffffffffffffffffffff160217905550808273ffffffffffffffffffffffffffffffffffffffff168473ffffffffffffffffffffffffffffffffffffffff167fddf252ad1be2c89b69c2b068fc378daa952ba7f163c4a11628f55a4df523b3ef60405160405180910390a4505050565b600073ffffffffffffffffffffffffffffffffffffffff168273ffffffffffffffffffffffffffffffffffffffff161415611f8b576040517f08c379a00000000000000000000000000000000000000000000000000000000081526004018080602001828103825260148152602001807f5a65726f2041646472657373204d696e74696e6700000000000000000000000081525060200191505060405180910390fd5b611f9481611b2d565b15612007576040517f08c379a00000000000000000000000000000000000000000000000000000000081526004018080602001828103825260148152602001807f416c7265617379204d696e74656420417373657400000000000000000000000081525060200191505060405180910390fd5b816009600083815260200190815260200160002060006101000a81548173ffffffffffffffffffffffffffffffffffffffff021916908373ffffffffffffffffffffffffffffffffffffffff160217905550600a60008373ffffffffffffffffffffffffffffffffffffffff1673ffffffffffffffffffffffffffffffffffffffff16815260200190815260200160002060008154809291906001019190505550808273ffffffffffffffffffffffffffffffffffffffff16600073ffffffffffffffffffffffffffffffffffffffff167fddf252ad1be2c89b69c2b068fc378daa952ba7f163c4a11628f55a4df523b3ef60405160405180910390a45050565b60006121298473ffffffffffffffffffffffffffffffffffffffff1661245a565b61213657600190506122e9565b60008473ffffffffffffffffffffffffffffffffffffffff1663150b7a02338887876040518563ffffffff1660e01b8152600401808573ffffffffffffffffffffffffffffffffffffffff1673ffffffffffffffffffffffffffffffffffffffff1681526020018473ffffffffffffffffffffffffffffffffffffffff1673ffffffffffffffffffffffffffffffffffffffff16815260200183815260200180602001828103825283818151815260200191508051906020019080838360005b838110156122115780820151818401526020810190506121f6565b50505050905090810190601f16801561223e5780820380516001836020036101000a031916815260200191505b5095505050505050602060405180830381600087803b15801561226057600080fd5b505af1158015612274573d6000803e3d6000fd5b505050506040513d602081101561228a57600080fd5b8101908080519060200190929190505050905063150b7a0260e01b7bffffffffffffffffffffffffffffffffffffffffffffffffffffffff1916817bffffffffffffffffffffffffffffffffffffffffffffffffffffffff1916149150505b949350505050565b6000806001600084815260200190815260200160002060009054906101000a900473ffffffffffffffffffffffffffffffffffffffff169050600073ffffffffffffffffffffffffffffffffffffffff168173ffffffffffffffffffffffffffffffffffffffff161415915050919050565b600073ffffffffffffffffffffffffffffffffffffffff166002600083815260200190815260200160002060009054906101000a900473ffffffffffffffffffffffffffffffffffffffff1673ffffffffffffffffffffffffffffffffffffffff161461241e5760006002600083815260200190815260200160002060006101000a81548173ffffffffffffffffffffffffffffffffffffffff021916908373ffffffffffffffffffffffffffffffffffffffff1602179055505b50565b6124396001826000015461246d90919063ffffffff16565b816000018190555050565b6001816000016000828254019250508190555050565b600080823b905060008111915050919050565b6000828211156124e5576040517f08c379a000000000000000000000000000000000000000000000000000000000815260040180806020018281038252601e8152602001807f536166654d6174683a207375627472616374696f6e206f766572666c6f77000081525060200191505060405180910390fd5b600082840390508091505092915050565b60405180604001604052806000815260200160008152509056fe4552433732313a207472616e7366657220746f206e6f6e20455243373231526563656976657220696d706c656d656e7465724f6e6c792073757065727669736f722043616e2063616c6c20746869732046756e6374696f6e214552433732313a207472616e7366657220746f20746865207a65726f20616464726573734552433732313a206f70657261746f7220717565727920666f72206e6f6e6578697374656e7420746f6b656e6f6e6c792073757065727669736f722063616e2063616c6c20746869732066756e6374696f6e214552433732313a2062616c616e636520717565727920666f7220746865207a65726f20616464726573734552433732313a20617070726f76656420717565727920666f72206e6f6e6578697374656e7420746f6b656e4552433732313a207472616e73666572206f6620746f6b656e2074686174206973206e6f74206f776e4552433732313a207472616e736665722063616c6c6572206973206e6f74206f776e6572206e6f7220617070726f766564a165627a7a72305820953a4ef5ff50a7ac5227055534c0117afa975119e89bb77895cd5866e60b2f2f0029",
  "source": "// SPDX-License-Identifier: MIT\r\npragma solidity >=0.4.22 <=0.6.0;\r\n\r\nimport \"./helper_contracts/ERC721.sol\";\r\n\r\ncontract RES is ERC721 {\r\n    \r\n    struct Asset {\r\n        uint256 assetId;\r\n        uint256 price;\r\n    }\r\n\r\n    uint256 public assetCount;\r\n    address public supervisor;\r\n\r\n    mapping(uint256=>Asset) public assetMap;\r\n    mapping(uint256=>address) public assetApprovals;\r\n    mapping(uint256=>address) public assetOwner;\r\n    mapping(address=>uint256) public ownedAssetCount;\r\n\r\n    constructor() public {\r\n        supervisor = msg.sender;\r\n    }\r\n\r\n    // Event\r\n    event Transfer(address indexed from, address indexed to, uint256 indexed tokenId);\r\n    event Approval(address indexed owner, address indexed approved, uint256 indexed tokenId);\r\n\r\n    ////////////////////////////////////////////////////////////////////////////////\r\n    //                              ERC721 functions                              //\r\n    ////////////////////////////////////////////////////////////////////////////////\r\n\r\n    function balanceOf(address owner) public view returns(uint256) {\r\n        require(msg.sender != address(0), \"ERC721: balance query for the zero address\");\r\n        return ownedAssetCount[owner];\r\n    }\r\n\r\n    function ownerOf(uint256 tokenId) public view returns(address) {\r\n        address owner = assetOwner[tokenId];\r\n        require(owner != address(0), \"No Asset Exists\");\r\n        return owner;\r\n    }\r\n\r\n    function transferFrom(address payable from, uint256 assetId) public payable {\r\n        //                     \r\n        require(isApprovedOrOwner(msg.sender, assetId), \"Not An Approved Owner\");\r\n\r\n        //         \r\n        require(ownerOf(assetId) == from, \"Not The Asset Owner\");\r\n\r\n        //                  \r\n        require(msg.value == assetMap[assetId].price * 10**18, \"Not enough Value\");\r\n\r\n        clearApproval(assetId, getApproved(assetId));\r\n\r\n        //          \r\n        ownedAssetCount[from]--; //     x--   ~   x = x -1\r\n\r\n        /*             \r\n            if(ownedAssetCount[from] == 0) {\r\n                delete ownedAssetCount[from];\r\n            }\r\n        */\r\n\r\n        //          \r\n        ownedAssetCount[msg.sender]++;\r\n\r\n        //        \r\n        assetOwner[assetId] = msg.sender;\r\n\r\n        //               \r\n        from.transfer(assetMap[assetId].price * 10**18);\r\n\r\n        emit Transfer(from, msg.sender, assetId);\r\n    }\r\n\r\n    function approve(address to, uint256 assetId) public {\r\n        address owner = ownerOf(assetId);\r\n\r\n        require(to != owner, \"Current Owner Approval\");\r\n\r\n        //            \r\n        require(msg.sender == owner, \"Not The Asset Owner\");\r\n\r\n        assetApprovals[assetId] = to;\r\n\r\n        emit Approval(owner, to, assetId);\r\n    }\r\n\r\n    function getApproved(uint256 assetId) public view returns(address) {\r\n        require(exists(assetId), \"ERC721: approved query for nonexistent token\");\r\n        return assetApprovals[assetId];\r\n    }\r\n\r\n\r\n    ////////////////////////////////////////////////////////////////////////////////\r\n    //             Functions used internally by another functions                 //\r\n    ////////////////////////////////////////////////////////////////////////////////\r\n    function mint(address to, uint256 assetId) internal {\r\n\r\n        require(to != address(0), \"Zero Address Minting\");\r\n        require(!exists(assetId), \"Alreasy Minted Asset\");\r\n\r\n        assetOwner[assetId] = to;\r\n        ownedAssetCount[to]++;\r\n\r\n        emit Transfer(address(0), to, assetId);\r\n    }\r\n\r\n    function exists(uint256 assetId) internal view returns(bool) {\r\n        return assetOwner[assetId] != address(0);\r\n    }\r\n\r\n    function isApprovedOrOwner(address spender, uint assetId) internal view returns(bool) {\r\n        require(exists(assetId), \"ERC721: operator query for nonexistent token\");\r\n\r\n        address owner = ownerOf(assetId);\r\n\r\n        return (spender == owner || spender == getApproved(assetId));\r\n    }\r\n\r\n\r\n    ////////////////////////////////////////////////////////////////////////////////\r\n    //                     Unused ERC721 functions                                //\r\n    ////////////////////////////////////////////////////////////////////////////////\r\n\r\n    bytes4 private constant _ERC721_RECEIVED = 0x150b7a02;\r\n\r\n    mapping (address => mapping (address => bool)) private _operatorApprovals;\r\n\r\n    event ApprovalForAll(address indexed owner, address indexed operator, bool approved);\r\n\r\n    function setApprovalForAll(address to, bool approved) public {\r\n        require(to != msg.sender, \"ERC721: approve to caller\");\r\n        _operatorApprovals[msg.sender][to] = approved;\r\n        emit ApprovalForAll(msg.sender, to, approved);\r\n    }\r\n\r\n    function isApprovedForAll(address owner, address operator) public view returns (bool) {\r\n        return _operatorApprovals[owner][operator];\r\n    }\r\n\r\n    function safeTransferFrom(address from, address to, uint256 tokenId, bytes memory _data) public {\r\n        transferFrom(from, to, tokenId);\r\n        require(_checkOnERC721Received(from, to, tokenId, _data), \"ERC721: transfer to non ERC721Receiver implementer\");\r\n    }\r\n\r\n    function safeTransferFrom(address from, address to, uint256 tokenId) public {\r\n        safeTransferFrom(from, to, tokenId, \"\");\r\n    }\r\n\r\n    function _checkOnERC721Received(address from, address to, uint256 tokenId, bytes memory _data) internal returns (bool) {\r\n        if (!to.isContract()) {\r\n            return true;\r\n        }\r\n        bytes4 retval = IERC721Receiver(to).onERC721Received(msg.sender, from, tokenId, _data);\r\n        return (retval == _ERC721_RECEIVED);\r\n    }\r\n\r\n\r\n\r\n    ////////////////////////////////////////////////////////////////////////////////\r\n    //                 Additional functions added to the  token                   //\r\n    ////////////////////////////////////////////////////////////////////////////////\r\n\r\n    function addAsset(uint256 price, address to) public {\r\n        \r\n        //         \r\n        require(msg.sender == supervisor, \"only supervisor can call this function!\");\r\n\r\n        //  \r\n        assetMap[assetCount] = Asset(assetCount, price);       // price : Eth   ,  assetCount ~ assetId\r\n\r\n        //    \r\n        mint(to, assetCount);\r\n\r\n        assetCount++;\r\n    }\r\n\r\n\r\n    function clearApproval(uint256 assetId, address approved) internal {\r\n        if(approved == assetApprovals[assetId]) {\r\n            assetApprovals[assetId] = address(0);\r\n        } \r\n    }\r\n\r\n    //   \r\n    function appreciate(uint256 assetId, uint256 value) public {\r\n        //          \r\n        require(msg.sender == supervisor, \"Only supervisor Can call this Function!\");\r\n\r\n        Asset memory oldAsset = assetMap[assetId];\r\n        assetMap[assetId] = Asset(oldAsset.assetId, oldAsset.price + value);   // value , price : Eth\r\n    }\r\n\r\n\r\n    //   \r\n    function depreciate(uint256 assetId, uint256 value) public {\r\n        //          \r\n        require(msg.sender == supervisor, \"Only supervisor Can call this Function!\");\r\n\r\n        Asset memory oldAsset = assetMap[assetId];\r\n        assetMap[assetId] = Asset(oldAsset.assetId, oldAsset.price - value);   // value , price : Eth\r\n    }\r\n\r\n    function getAssetsSize() public view returns(uint256) {\r\n        return assetCount;\r\n    }\r\n}",
  "sourcePath": "C:\\Dapps\\RES-Dapp-final\\res-contract\\contracts\\RES.sol",
  "compiler": {
    "name": "solc",
    "version": "0.5.8+commit.23d335f2.Emscripten.clang"
  },
  "schemaVersion": "3.4.5",
  "updatedAt": "2022-03-01T22:02:13.446Z",
  "networkType": "ethereum",
  "devdoc": {
    "methods": {
      "supportsInterface(bytes4)": {
        "details": "See `IERC165.supportsInterface`.     * Time complexity O(1), guaranteed to always use less than 30 000 gas."
      },
      "transferFrom(address,address,uint256)": {
        "details": "Transfers the ownership of a given token ID to another address. Usage of this method is discouraged, use `safeTransferFrom` whenever possible. Requires the msg.sender to be the owner, approved, or operator.",
        "params": {
          "from": "current owner of the token",
          "to": "address to receive the ownership of the given token ID",
          "tokenId": "uint256 ID of the token to be transferred"
        }
      }
    }
  },
  "userdoc": {
    "methods": {
      "addAsset(uint256,address)": {
        "notice": "/////////////////////////////////////////////////////////////////////////////"
      },
      "balanceOf(address)": {
        "notice": "/////////////////////////////////////////////////////////////////////////////"
      }
    }
  }
}